:0400000054EF14F0B5
:10060000010000000A00000064000000E803000090
:1006100010270000A086010040420F00809698003D
:1006200000E1F50500CA9A3B00803FCDCC3DD723C1
:100630003C12833AB7D138C62737388635C0D6330F
:10064000CC2B32708930E7DB2EE53C1E42A20D0038
:10065000803F00204100C842007A44401C4650C3FD
:100660004724744997184BBCBE4C6B6E4E03155013
:1006700079AD60F349714C743A0052743A002564C4
:100680000025660020000000FFFF000E5A6E490E94
:10069000596E53EF07F06C50250AD8B401D001D041
:1006A00009D045C0D9FF46C0DAFF6CC0DFFF454A1C
:1006B000462AF9D3000E5C6E000E5B6E08D064EF24
:1006C00007F05C841CD01BD01AD0EDD318D047C0E3
:1006D000F6FF48C0F7FF474A482A0800FFFFF5CF5A
:1006E0006CF06C50000AD8B4EFD3640AD8B407D0C9
:1006F000020AD8B4E6D70F0AD8B401D0D4D3070E73
:100700005C14D8B401D001D011D3000E616E060E76
:10071000606E59C0D9FF5AC0DAFFDECF69F0DECF74
:100720006AF0DDCF6BF0030E5926000E5A226B5093
:10073000800A800F05E1000E6A5C02E1000E695C30
:10074000D8B001D001D011D069C001F06AC002F068
:100750006BC003F013EC14F001C069F002C06AF042
:1007600003C06BF0030E5B1200D0000E686E000E2B
:10077000676E7F0E6B146A106910D8B401D001D077
:1007800086D0820E4C6EFF0E4D6E69C04EF06AC070
:100790004FF06BC050F06CC051F0100E05D0D890E7
:1007A000513250324F324E32E82EF9D74E504C244F
:1007B000676E000E4D20686E6706D8A0680667C099
:1007C00001F068C002F0000E046E030E036E3FECF1
:1007D00013F001C067F002C068F067C008F068C09D
:1007E00009F0000E0B6E0A0E0A6E96EC10F008C0AF
:1007F00067F009C068F068AE01D001D004D0670688
:10080000D8A0680600D067500008316E6DEC07F084
:1008100031C05DF032C05EF033C05FF0000E326E6A
:100820005D0E316E69C033F06AC034F06BC035F0D4
:1008300081EC13F05DC001F05EC002F05FC003F018
:10084000000E046E800E056E3F0E066E4CEC11F02D
:10085000D8B001D001D004D06706D8A0680617D060
:100860005DC001F05EC002F05FC003F0000E046ED8
:10087000200E056E410E066E4CEC11F0D8A001D092
:1008800001D005D0674A682A02D001D000D061505B
:10089000800A800F0D0ED8B4605CD8B001D001D0B2
:1008A00011D0000E416E690E406E60C031F09CECBC
:1008B00009F031C042F032C043F033C044F060EC84
:1008C00013F000D06850800A800F0A0ED8B4675C1D
:1008D000D8B001D001D023D07F0E6B146A106910FC
:1008E000D8B401D001D07FD069C011F06AC012F035
:1008F0006BC013F00BEC0EF014501110121013100B
:10090000D8A401D001D06FD06850800A800F020EA9
:10091000D8B4675CD8A001D001D065D000D05DC04C
:1009200001F05EC002F05FC003F0700E046E890E2D
:10093000056E400E066E4CEC11F0D8B001D001D01F
:1009400005D0F70E6726FF0E682205D0F80E672641
:10095000FF0E682200D067C031F06DEC07F031C0A7
:100960005DF032C05EF033C05FF017D069C001F0B7
:100970006AC002F06BC003F05DC004F05EC005F019
:100980005FC006F0BDEC0CF001C055F002C056F09F
:1009900003C057F004C058F017D069C001F06AC016
:1009A00002F06BC003F05DC004F05EC005F05FC0F4
:1009B00006F0F9EC0BF001C055F002C056F003C090
:1009C00057F004C058F000D055C062F056C063F034
:1009D00057C064F058C065F0000E696E000E6A6E74
:1009E000000E6B6E2BD069C011F06AC012F06BC0A4
:1009F00013F00BEC0EF011C062F012C063F013C0E4
:100A000064F014C065F0000E1E6E690E1D6E62C0AB
:100A100009F063C00AF064C00BF065C00CF06DEC27
:100A200012F009C01FF00AC020F00BC021F01EEC2C
:100A300013F0000E686E000E676E00D04C6E010E53
:100A40006C6E4C506C500A0AD8A401D001D002D070
:100A500027D026D06C50040D000EF324F66EF76AF2
:100A6000060EF7220900FFFFF550625C0900FFFF48
:100A7000F55063580900FFFFF55064580900FFFF67
:100A8000F5506558D8B001D001D002D009D008D0B7
:100A90006C2A6C500A0AD8A401D001D0DBD700D050
:100AA000030E5B144C6E000E5C144D6E4D504C10DA
:100AB000D8B401D001D048D045C0D9FF46C0DAFF34
:100AC0002D0EDF6E454A462A3FD03ED06C50040DB5
:100AD000000EF324F66EF76A060EF7220900FFFFF8
:100AE000F5CF05F00900FFFFF5CF06F00900FFFF85
:100AF000F5CF07F00A00FFFFF5CF08F062C001F064
:100B000063C002F064C003F065C004F0A0EC11F013
:100B100001C00FF002C010F003C011F004C012F0C9
:100B20000A0E136E000E146E000E156E000E166E79
:100B3000F0EC11F00F50300F45C0D9FF46C0DAFF7E
:100B4000DF6E454A462A00D06C066C28D8A401D036
:100B500001D0BCD70DD00CD045C0D9FF46C0DAFFBC
:100B6000300EDF6E454A462A6706D8A0680600D0D8
:100B70006850800A800F010ED8B4675CD8B001D0ED
:100B800001D0EAD700D06150800A800F090ED8B496
:100B9000605CD8A001D001D005D04C6E080E6C6E00
:100BA0004C5003D060C06CF000D06C50605E000E02
:100BB0006CBEFF0E615A6C50D8B401D001D009D080
:100BC00045C0D9FF46C0DAFF2E0EDF6E454A462AE1
:100BD00000D06CC031F06DEC07F031C052F032C083
:100BE00053F033C054F069C023F06AC024F06BC0E6
:100BF00025F052C020F053C021F054C022F06AEC1E
:100C00000DF020C011F021C012F022C013F00BEC47
:100C10000EF011C062F012C063F013C064F014C093
:100C200065F068D06C50040D000EF324F66EF76A80
:100C3000060EF7220900FFFFF5CF05F00900FFFFC0
:100C4000F5CF06F00900FFFFF5CF07F00A00FFFF20
:100C5000F5CF08F062C001F063C002F064C003F099
:100C600065C004F0A0EC11F001C00FF002C010F05C
:100C700003C011F004C012F00A0E136E000E146EC1
:100C8000000E156E000E166EF0EC11F00F50300FC6
:100C900045C0D9FF46C0DAFFDF6E454A462A62C02A
:100CA0000FF063C010F064C011F065C012F06C501A
:100CB000040D000EF324F66EF76A060EF722090003
:100CC000FFFFF5CF13F00900FFFFF5CF14F0090087
:100CD000FFFFF5CF15F00A00FFFFF5CF16F0F0EC9F
:100CE00011F00FC062F010C063F011C064F012C0C8
:100CF00065F000D06C066C28D8A401D001D092D742
:100D00000DD00CD045C0D9FF46C0DAFF300EDF6EE3
:100D1000454A462A6006D8A0610600D0615060109E
:100D2000D8A401D001D0EED7BED0BDD059C0D9FFD4
:100D30005AC0DAFFDECF62F0DDCF63F0000E63BE93
:100D4000FF0E646E656E020E5926000E5A2265AEC5
:100D500001D001D00BD0030E5B12651E641E631E12
:100D6000626C000E63226422652200D04C6E010E7C
:100D70006C6E4C506C500A0AD8A401D001D002D03D
:100D800027D026D06C50040D000EF324F66EF76ABF
:100D9000060EF7220900FFFFF550625C0900FFFF15
:100DA000F55063580900FFFFF55064580900FFFF34
:100DB000F5506558D8B001D001D002D009D008D084
:100DC0006C2A6C500A0AD8A401D001D0DBD700D01D
:100DD000030E5B144C6E000E5C144D6E4D504C10A7
:100DE000D8B401D001D009D045C0D9FF46C0DAFF40
:100DF0002D0EDF6E454A462A00D06C50606E616A47
:100E000060BE610644D060C04CF0D8904C36D8909B
:100E10004C36000E4C24F66EF76A060EF7220900D7
:100E2000FFFFF5CF05F00900FFFFF5CF06F0090041
:100E3000FFFFF5CF07F00A00FFFFF5CF08F062C013
:100E400001F063C002F064C003F065C004F0A0ECE0
:100E500011F001C00FF002C010F003C011F004C087
:100E600012F00A0E136E000E146E000E156E000EB8
:100E7000166EF0EC11F00F50300F6C6E45C0D9FFBC
:100E800046C0DAFF6CC0DFFF454A462A00D0600644
:100E9000D8A061066028D8B46128D8A401D001D0B8
:100EA000B2D701D000D047C0F6FF48C0F7FF474A8D
:100EB000482A0800FFFFF5CF6CF06C6601D002D025
:100EC0004BEF03F001D000D045C0D9FF46C0DAFF98
:100ED000000EDF6E00D01200FFFFFFFF31AE01D029
:100EE00001D015D1316C3150800A120FD8A001D039
:100EF00001D094D0000E0B6E0A0E0A6E000E046E26
:100F0000640E036E3150016E026A01BE0206F6ECF9
:100F100010F001C008F002C009F096EC10F0085083
:100F2000090F030D280EF324F66EF76A060EF7225A
:100F30000900FFFFF5CF34F00900FFFFF5CF35F0D2
:100F40000900FFFFF5CF36F034C023F035C024F0A0
:100F500036C025F0000E0B6E640E0A6E3150086E1E
:100F6000096A08BE090696EC10F00850120F030D2E
:100F7000280EF324F66EF76A060EF7220900FFFF2B
:100F8000F5CF37F00900FFFFF5CF38F00900FFFF7C
:100F9000F5CF39F037C020F038C021F039C022F049
:100FA0006AEC0DF020C03AF021C03BF022C03CF0CA
:100FB0003AC020F03BC021F03CC022F0000E046E8D
:100FC0000A0E036E3150016E026A01BE0206F6EC93
:100FD00010F00150030D280EF324F66EF76A060E8A
:100FE000F7220900FFFFF5CF34F00900FFFFF5CF2E
:100FF00035F00900FFFFF5CF36F034C023F035C0DF
:1010000024F036C025F06AEC0DF020C031F021C08C
:1010100032F022C033F08ED18DD15DD03150800AB4
:10102000750FD8A001D001D056D0000E0B6E0A0E5D
:101030000A6E3150086E096A08BE090696EC10F077
:101040000850090F030D280EF324F66EF76A060EFA
:10105000F7220900FFFFF5CF34F00900FFFFF5CFBD
:1010600035F00900FFFFF5CF36F034C020F035C071
:1010700021F036C022F0000E046E0A0E036E3150CD
:10108000016E026A01BE0206F6EC10F00150030D7B
:10109000280EF324F66EF76A060EF7220900FFFF0A
:1010A000F5CF37F00900FFFFF5CF38F00900FFFF5B
:1010B000F5CF39F037C023F038C024F039C025F01F
:1010C0006AEC0DF020C031F021C032F022C033F0C4
:1010D00031D130D100D03150030D280EF324F66EFB
:1010E000F76A060EF7220900FFFFF5CF34F009007A
:1010F000FFFFF5CF35F00900FFFFF5CF36F034C024
:1011000031F035C032F036C033F014D113D1315044
:10111000800A120FD8A001D001D094D0000E0B6E1F
:101120000A0E0A6E000E046E640E036E3150016EDC
:10113000026A01BE0206F6EC10F001C008F002C01F
:1011400009F096EC10F00850090F030D4F0EF32430
:10115000F66EF76A060EF7220900FFFFF5CF34F0AE
:101160000900FFFFF5CF35F00900FFFFF5CF36F09E
:1011700034C023F035C024F036C025F0000E0B6ECD
:10118000640E0A6E3150086E096A08BE090696ECB4
:1011900010F00850120F030D4F0EF324F66EF76A8D
:1011A000060EF7220900FFFFF5CF37F00900FFFF19
:1011B000F5CF38F00900FFFFF5CF39F037C020F048
:1011C00038C021F039C022F06AEC0DF020C03AF0AE
:1011D00021C03BF022C03CF03AC020F03BC021F0DF
:1011E0003CC022F0000E046E0A0E036E3150016EF8
:1011F000026A01BE0206F6EC10F00150030D4F0E1C
:10120000F324F66EF76A060EF7220900FFFFF5CF0A
:1012100034F00900FFFFF5CF35F00900FFFFF5CFEF
:1012200036F034C023F035C024F036C025F06AEC27
:101230000DF020C031F021C032F022C033F07AD05E
:1012400079D05DD03150800A750FD8A001D001D07F
:1012500056D0000E0B6E0A0E0A6E3150086E096AE7
:1012600008BE090696EC10F00850090F030D4F0E4A
:10127000F324F66EF76A060EF7220900FFFFF5CF9A
:1012800034F00900FFFFF5CF35F00900FFFFF5CF7F
:1012900036F034C020F035C021F036C022F0000E08
:1012A000046E0A0E036E3150016E026A01BE020620
:1012B000F6EC10F00150030D4F0EF324F66EF76AB2
:1012C000060EF7220900FFFFF5CF37F00900FFFFF8
:1012D000F5CF38F00900FFFFF5CF39F037C023F024
:1012E00038C024F039C025F06AEC0DF020C031F090
:1012F00021C032F022C033F01DD01CD000D03150BC
:10130000030D4F0EF324F66EF76A060EF72209005E
:10131000FFFFF5CF34F00900FFFFF5CF35F00900EE
:10132000FFFFF5CF36F034C031F035C032F036C0B3
:1013300033F000D01200FFFFFFFF6D0E316401D0CB
:1013400001D0A2D0000E0B6E0A0E0A6E000E046EC3
:10135000640E036E31C001F0026AF6EC10F001C0B9
:1013600008F002C009F096EC10F00850090F030DC8
:10137000280EF324F66EF76A060EF7220900FFFF27
:10138000F5CF34F00900FFFFF5CF35F00900FFFF7E
:10139000F5CF36F034C023F035C024F036C025F048
:1013A000000E0B6E640E0A6E31C008F0096A96ECEE
:1013B00010F00850120F030D280EF324F66EF76A92
:1013C000060EF7220900FFFFF5CF37F00900FFFFF7
:1013D000F5CF38F00900FFFFF5CF39F037C020F026
:1013E00038C021F039C022F06AEC0DF020C03DF089
:1013F00021C03EF022C03FF0000E046E0A0E036EC4
:1014000031C001F0026AF6EC10F00150030D280E15
:10141000F324F66EF76A060EF7220900FFFFF5CFF8
:1014200034F00900FFFFF5CF35F00900FFFFF5CFDD
:1014300036F034C023F035C024F036C025F03DC06E
:1014400020F03EC021F03FC022F06AEC0DF020C039
:101450003AF021C03BF022C03CF03AC020F03BC043
:1014600021F03CC022F0000E236E000E246E3F0ED1
:10147000256E6AEC0DF020C031F021C032F022C0A0
:1014800033F096D095D06BD00A0E316401D001D0E4
:1014900066D0000E046E0A0E036E31C001F0026ABF
:1014A000F6EC10F00150030D280EF324F66EF76AE7
:1014B000060EF7220900FFFFF5CF34F00900FFFF09
:1014C000F5CF35F00900FFFFF5CF36F034C023F03B
:1014D00035C024F036C025F0000E0B6E0A0E0A6EE1
:1014E00031C008F0096A96EC10F00850090F030D9E
:1014F000280EF324F66EF76A060EF7220900FFFFA6
:10150000F5CF37F00900FFFFF5CF38F00900FFFFF6
:10151000F5CF39F037C020F038C021F039C022F0C3
:101520006AEC0DF020C03DF021C03EF022C03FF03B
:101530003DC020F03EC021F03FC022F0000E236EDF
:10154000000E246E3F0E256E6AEC0DF020C031F0C7
:1015500021C032F022C033F02BD02AD000D031503D
:10156000030D280EF324F66EF76A060EF722090023
:10157000FFFFF5CF34F00900FFFFF5CF35F009008C
:10158000FFFFF5CF36F034C020F035C021F036C073
:1015900022F0000E236E000E246E3F0E256E6AECC4
:1015A0000DF020C031F021C032F022C033F000D065
:1015B0001200FFFFFFFF0F0E0F6E09C010F00AC0F0
:1015C00011F00BC012F00F28136E04D0D890123215
:1015D00011321032132EFAD71050166E0F0E0F6EF6
:1015E0000CC010F00DC011F00EC012F00F28136ED9
:1015F00004D0D890123211321032132EFAD7105074
:10160000156E1650D8B401D001D00FD01550166009
:1016100001D001D011D01650000815240F6E190EFC
:101620000F5CD8A001D001D007D00CC009F00DC0CC
:101630000AF00EC00BF0DBD01550D8B401D001D0A9
:101640000FD01650156001D001D011D015500008F0
:1016500016240F6E190E0F5CD8A001D001D007D050
:1016600009C009F00AC00AF00BC00BF0C0D00F6E21
:10167000060E146E0F500BAE01D001D002D0148EA6
:1016800000D00EAE01D001D001D0148C0A8EFF0E16
:101690000916FF0E0A16000E0B160D8EFF0E0C1605
:1016A000FF0E0D16000E0E161550166001D001D05B
:1016B00023D000D0D8900C360D360E3615061550B6
:1016C0001618D8B401D001D010D014061450070B4E
:1016D000D8A401D001D0EED708D007D006D0D8903A
:1016E0000B320A320932162A00D01550166201D088
:1016F00001D0F5D729D028D01650156001D001D0DF
:1017000023D000D0D89009360A360B36160615506D
:101710001618D8B401D001D010D014061450070BFD
:10172000D8A401D001D0EED708D007D006D0D890E9
:101730000E320D320C32152A00D01550166201D02F
:1017400001D0F5D701D000D014AE01D001D00CD01B
:10175000FF0E091AFF0E0A1AFF0E0B1A010E0926B8
:10176000000E0A22000E0B2214AC01D001D00DD0C5
:10177000FF0E0C1AFF0E0D1AFF0E0E1A010E0C268C
:10178000000E0D22000E0E2200D00F6E000E146E01
:101790000F5009500C260A500D220B500E220EAE8F
:1017A00001D001D011D0FF0E0C1AFF0E0D1AFF0E42
:1017B0000E1A010E0C26000E0D22000E0E220F6EC8
:1017C000010E146E0F5000D00CC001F00DC002F0DD
:1017D0000EC003F016C004F014C005F0A7EC0FF023
:1017E00001C009F002C00AF003C00BF000D01200E3
:1017F000FFFFFFFF0F0E076E01C008F002C009F0E7
:1018000003C00AF007280B6E04D0D8900A320932C0
:1018100008320B2EFAD70850116E116601D001D094
:101820000AD0000E016E000E026E000E036E000E56
:10183000046EA1D0A0D00F0E076E04C008F005C042
:1018400009F006C00AF007280B6E04D0D8900A32BF
:10185000093208320B2EFAD70850106E106601D0EC
:1018600001D00AD0000E016E000E026E000E036E53
:10187000000E046E80D07FD0028EFF0E0116FF0E88
:101880000216000E0316058EFF0E0416FF0E051637
:10189000000E0616000E0C6E000E0D6E000E0E6E83
:1018A000000E0F6E7F0E115E1050980F115E076EC6
:1018B000180E106E075000D0D8900C360D360E362C
:1018C0000F360450015C0550025806500358D8A04A
:1018D00001D001D007D00450015E0550025A0650D5
:1018E000035A0C80D890013602360336102EE4D706
:1018F00011AE01D001D01BD01150800A970FD8B083
:1019000001D001D00BD0000E016E000E026E000E51
:10191000036E000E046E2FD02ED000D0D8900F3260
:101920000E320D320C32113EF9D71DD01CD0170EDD
:10193000116401D001D012D0000E016E000E026EB3
:10194000000E036E000E046E16D015D007D0D8908E
:101950000C360D360E360F36110600D0116601D04A
:1019600001D0F5D700D00CC001F00DC002F00EC0C0
:1019700003F00FC004F01200FFFFFFFF0334043434
:101980000D6E0D6601D001D00AD0000E016E000E62
:10199000026E000E036E000E046E9AD099D00634CB
:1019A00007340C6E0C6601D001D00AD0000E016E17
:1019B000000E026E000E036E000E046E89D088D0F9
:1019C000038EFF0E0116FF0E0216FF0E0316000E09
:1019D0000416068EFF0E0416FF0E0516FF0E0616E1
:1019E000000E0716000E086E000E096E000E0A6E3D
:1019F000000E0B6E7F0E0D5E0C50A00F0D5E076E7D
:101A0000200E0C6E0750D890083609360A360B3671
:101A10000450015C05500258065003580750045802
:101A2000D8A001D001D00AD00450015E0550025A5E
:101A30000650035A0750045A088000D0D890013647
:101A40000236033604360C2EDED70DAE01D001D09F
:101A50001BD00D50800A9F0FD8B001D001D00BD001
:101A6000000E016E000E026E000E036E000E046E7C
:101A70002FD02ED000D0D8900B320A320932083243
:101A80000D3EF9D71DD01CD01F0E0D6401D001D022
:101A900012D0000E016E000E026E000E036E000EDC
:101AA000046E16D015D007D0D890083609360A36FD
:101AB0000B360D0600D00D6601D001D0F5D700D051
:101AC00008C001F009C002F00AC003F00BC004F026
:101AD0001200FFFFFFFF0F0E266E20C027F021C06F
:101AE00028F022C029F026282A6E04D0D890293266
:101AF000283227322A2EFAD727502B6E2B6601D098
:101B000001D008D0000E206E000E216E000E226E55
:101B100080D07FD00F0E266E23C027F024C028F07F
:101B200025C029F026282A6E04D0D89029322832E0
:101B300027322A2EFAD72750306E306601D001D0D6
:101B400008D0000E206E000E216E000E226E61D0B5
:101B500060D030507B0F2B2622C030F02550301A39
:101B6000800E3016218E248EFF0E2316FF0E2416B3
:101B7000000E2516000E2C6E000E2D6E000E2E6E21
:101B8000266E070E2F6E265000D020A001D001D067
:101B900007D023502C2624502D2225502E2200D051
:101BA000D890223221322032D8902336243625365E
:101BB0002F2EEBD700D0266E090E2F6E265000D0A8
:101BC00020A001D001D007D023502C2624502D2254
:101BD00025502E2200D0D890223221322032D890A7
:101BE0002E322D322C322F2EEBD700D02CC001F00C
:101BF0002DC002F02EC003F02BC004F030C005F061
:101C0000A7EC0FF001C020F002C021F003C022F0C9
:101C100000D01200FFFFFFFF0F0E156E11C016F06F
:101C200012C017F013C018F01528196E04D0D89000
:101C3000183217321632192EFAD716501F6E1F6639
:101C400001D001D00AD0000E116E000E126E000EEF
:101C5000136E000E146E77D076D0170E156E11C06D
:101C600016F012C017F013C018F01528196E04D022
:101C7000D890183217321632192EFAD716501A6E1B
:101C8000128EFF0E1116FF0E1216000E13161150B3
:101C90001B6E12501C6E13501D6E1E6A8E0E1F5E40
:101CA0001FAE01D001D01BD01F50800A8F0FD8B0BB
:101CB00001D001D00BD0000E116E000E126E000E7E
:101CC000136E000E146E3FD03ED000D0D8901E325E
:101CD0001D321C321B321F3EF9D71ED01DD0170EED
:101CE0001F6401D001D012D0000E116E000E126ED2
:101CF000000E136E000E146E26D025D007D0D8909B
:101D00001B361C361D361E361F0600D01F6601D03E
:101D100001D0F5D701D000D01A50D8B401D001D0ED
:101D200009D01E1E1D1E1C1E1B6C000E1C221D2217
:101D30001E2200D01BC011F01CC012F01DC013F0F9
:101D40001EC014F000D01200FFFFFFFF000E0001C4
:101D500000019A6F000E0001996F20EE9BF010EECB
:101D600080F00F0EDECFE6FFE82EFCD70001000E5C
:101D7000466E00018F0E456E060E486E7E0E476E53
:101D80006DC049F06EC04AF044EC03F00001000E53
:101D9000466E0001940E456E060E486E7E0E476E2E
:101DA0006FC049F070C04AF044EC03F00001000E2F
:101DB000026E0001800E016E060E046E760E036E3A
:101DC00032EC12F00001000E026E0001800E016E76
:101DD0000001000E046E00018F0E036E32EC12F053
:101DE0000001000E026E0001800E016E060E046EF0
:101DF000840E036E32EC12F00001000E026E000140
:101E0000800E016E060E046E7A0E036E32EC12F036
:101E10000001000E026E0001800E016E0001000E36
:101E2000046E0001940E036E32EC12F00001000EFD
:101E3000000100019A6F0001800E0001996F99C0A6
:101E400007F09AC008F0FAEC13F01200FFFFFFFF52
:101E500000017690076601D001D007D0000176809E
:101E6000086E030E0A6E085005D0086E3F0E0A6E0B
:101E7000085000D08A968A928A949396939293946B
:101E8000F00E956E086E0F0E016E0850D0EC12F039
:101E90000AC08CFF8A8200F000F08A92086E050E5C
:101EA000016E0850D0EC12F00AC08CFF8A8200F05C
:101EB00000F08A92086E640E096E085008D0086E11
:101EC000010E096E085003D002D000F000F0092E78
:101ED000FCD70AC08CFF8A8200F000F08A920001D1
:101EE00076A001D001D013D0086E050E016E085007
:101EF000D0EC12F0020E8C6E8A8200F000F08A9212
:101F0000086E280E056E0850F9EC12F006D0086E27
:101F1000380E056E0850F9EC12F0086E0F0E056EC3
:101F20000850F9EC12F0086E010E056E0850F9EC3D
:101F300012F0086E060E056E0850F9EC12F0086EED
:101F4000800E056E0850F9EC12F01200FFFFFFFF43
:101F50000450D8B401D001D008D0015002100310B1
:101F6000D8A401D001D010D000D0000E016E000E18
:101F7000026E000E036E62D061D006D0042AD890A3
:101F800003320232013200D0000E0114066E000E40
:101F90000214076EFE0E0314086E06500710081098
:101FA000D8A401D001D0EAD70DD00CD0042A010E5C
:101FB0000126000E0222000E0322D89003320232C4
:101FC000013200D0000E0114066E000E0214076EDE
:101FD000FF0E0314086E065007100810D8A401D095
:101FE00001D0E4D707D006D00406D89001360236D7
:101FF000033600D002AE01D001D0F6D704B001D034
:1020000001D002D0029E00D0D89004320450086E55
:10201000076A066A0650011207500212085003129E
:102020000550D8B401D001D002D0038E00D001C039
:1020300001F002C002F003C003F000D01200FFFF65
:10204000FFFF000E736E000E726E000E756E000EB6
:10205000746EDFEC13F060EC14F03FEC14F000D081
:10206000C296C298C29AC280C28400D0C2B401D0C3
:1020700001D0FCD7C19EC4CF72F0736A72C06DF0FC
:1020800073C06EF074C06FF075C070F0A5EC0EF008
:10209000860E066EA00E056E2AEC14F0716E010E0F
:1020A000056E7150F9EC12F0C90E725C000E735897
:1020B000D8A001D001D003D08198818A02D0819824
:1020C000819AC286C298C29AC280C28400D0C2B429
:1020D00001D001D0FCD7C19EC4CF74F0756A72C024
:1020E0006DF073C06EF074C06FF075C070F0A5EC49
:1020F0000EF0860E066EA00E056E2AEC14F0716EC0
:10210000010E056E7150F9EC12F0C90E745C000EF0
:102110007558D8A001D001D003D0818C819EA0D762
:10212000819C819E9DD79CD700EF00F0FFFF0C6E35
:10213000000E0E6E0C500BAE01D001D009D00A6C0F
:102140000B1ED8B00B2A0C6E010E0E6E0C5000D078
:1021500009AE01D001D007D0086C091ED8B0092AF9
:10216000010E0E1A00D0000E106E000E0F6E0B50F6
:102170000A10D8B401D001D028D00C6E010E0D6E1B
:102180000C5005D0D8900A360B360D2A00D00BAE75
:1021900001D001D0F7D701D000D0D8900F3610363B
:1021A0000A50085C0B500958D8A001D001D006D0C5
:1021B0000A50085E0B50095A0F8000D0D8900B329D
:1021C0000A320D2EEAD701D000D00E50D8B401D07B
:1021D00001D005D00F6C101ED8B0102A00D00FC04F
:1021E00008F010C009F000D01200FFFFFFFF056EDD
:1021F000000E076E055002AE01D001D009D0016C6F
:10220000021ED8B0022A056E010E076E055000D0DE
:1022100004AE01D001D005D0036C041ED8B0042A4E
:1022200000D004500310D8B401D001D024D0056EE2
:10223000010E066E055005D0D89003360436062AE6
:1022400000D004AE01D001D0F7D701D000D00350A8
:10225000015C04500258D8A001D001D005D0035031
:10226000015E0450025A00D0D89004320332062E88
:10227000EED701D000D00750D8B401D001D005D09E
:10228000016C021ED8B0022A00D001C001F002C0C9
:1022900002F000D01200FFFFFFFF03AE01D001D01B
:1022A00017D001C007F002C008F003C009F0071EF4
:1022B000081E091E072A000E08220922000E072404
:1022C000016E000E0820026E800E0920036E00D001
:1022D00006AE01D001D017D004C007F005C008F049
:1022E00006C009F0071E081E091E072A000E082254
:1022F0000922000E0724046E000E0820056E800ED1
:102300000920066E00D0000E011A000E021A800E7F
:10231000031A000E041A000E051A800E061A045045
:10232000015C0550025806500358D8B001D001D0C6
:1023300002D0D89003D0D88001D000D01200FFFF87
:10234000FFFF000E0A6E000E0B6E000E0C6E000EEC
:102350000D6E0850051006100710D8B401D001D03A
:1023600035D0096E010E0E6E095007D0D890053693
:102370000636073608360E2A00D008AE01D001D046
:10238000F5D701D000D0D8900A360B360C360D3672
:102390000550015C06500258075003580850045875
:1023A000D8A001D001D00AD00550015E0650025AD3
:1023B0000750035A0850045A0A8000D0D8900832B7
:1023C0000732063205320E2EDED700D00AC001F0E9
:1023D0000BC002F00CC003F00DC004F01200FFFFB0
:1023E000FFFF1650131014101510D8B401D001D0EF
:1023F0002FD0176E010E186E175007D0D8901336D5
:10240000143615361636182A00D016AE01D001D073
:10241000F5D701D000D013500F5C14501058155050
:10242000115816501258D8A001D001D009D013501D
:102430000F5E1450105A1550115A1650125A00D0EF
:10244000D8901632153214321332182EE4D700D039
:102450000FC00FF010C010F011C011F012C012F038
:102460001200FFFFFFFF01C007F002C008F003D019
:10247000074A082A00D007C0D9FF08C0DAFFDF509A
:10248000D8A401D001D0F4D702D001D000D003509D
:10249000056E0450066E034A042A05C0F6FF06C006
:1024A000F7FFF86A07C0D9FF08C0DAFF074A082A11
:1024B000050EF76404D00800FFFFF55005D0F6CFF5
:1024C000E9FFF7CFEAFFEF50DF6EDF50D8A401D06D
:1024D00001D0DDD700D01200FFFFFFFF0D6E8E0E82
:1024E000116E0D5007D0D8900C320B320A320932DF
:1024F000112A00D0000E09140D6E000E0A140E6E83
:10250000000E0B140F6EFF0E0C14106E10500D10F9
:102510000E100F10D8A401D001D0E5D700D009C00B
:1025200001F00AC002F00BC003F011C004F00D6E00
:10253000000E056E0D50A7EC0FF001C009F002C0AF
:102540000AF003C00BF000D01200FFFFFFFF066E81
:10255000050E016E0650D0EC12F0000E8C6E8A86CD
:10256000000176A001D001D012D005380F0B0F0B5F
:102570008C128A8200F000F08A92F00E8C160550C0
:102580000F0B8C128A8200F000F08A9206D005C0F0
:102590008CFF8A8200F000F08A928A961200FFFF78
:1025A000FFFF1ED0026E040E036E025011D0026EA9
:1025B000770E046E025008D0026E010E046E0250B7
:1025C00003D002D000F000F0042EFCD701D000D0E0
:1025D00003060328D8A401D001D0E9D701D000D048
:1025E00001060128D8A401D001D0DCD700D0120008
:1025F000FFFFFFFF066E050E016E0650D0EC12F0D5
:10260000000176A001D001D010D005380F0B0F0BC0
:102610008C6E8A8200F000F08A9205500F0B8C6E4F
:102620008A8200F000F08A9207D005C08CFF8A826F
:1026300000F000F08A9200D01200FFFFFFFF1DC0E3
:10264000D9FF1EC0DAFFDECF17F0DECF18F0DDCFE6
:1026500019F01FC01AF020C01BF021C01CF0C1EC03
:1026600013F01DC0D9FF1EC0DAFF17C0DEFF18C06F
:10267000DEFF19C0DDFFDD5200D01200FFFFFFFFBB
:10268000000E066E000E056E00D001A001D001D034
:1026900005D0035005260450062200D0D8900336FA
:1026A0000436D8900232013202500110D8A401D071
:1026B00001D0EBD705C001F006C002F01200FFFF09
:1026C000FFFF40C0D9FF41C0DAFFDECF09F0DECF07
:1026D0000AF0DDCF0BF042C00CF043C00DF044C057
:1026E0000EF0DAEC0AF040C0D9FF41C0DAFF09C0B1
:1026F000DEFF0AC0DEFF0BC0DDFFDD5200D012009E
:10270000FFFFFFFF31C0D9FF32C0DAFFDECF20F07C
:10271000DECF21F0DDCF22F033C023F034C024F02F
:1027200035C025F06AEC0DF031C0D9FF32C0DAFFB8
:1027300020C0DEFF21C0DEFF22C0DDFFDD5200D061
:102740001200FFFFFFFF04D00106D8A0020600D050
:1027500002500110D8A401D001D0F6D700D0036EEA
:10276000320E046E035008D0036E010E046E035047
:1027700003D002D000F000F0042EFCD700D01200ED
:10278000FFFFFFFF000E1A1A000E1B1A800E1C1A04
:1027900017C009F018C00AF019C00BF01AC00CF0ED
:1027A0001BC00DF01CC00EF0DAEC0AF009C017F0E7
:1027B0000AC018F00BC019F000D01200FFFFFFFF95
:1027C00094929494010ECB6E010ECC6EBB68BE68E1
:1027D000BA9ABA88BD9ABD88040ECA6EBA500C095E
:1027E000BA6EBD500C09BD6E9398939A939C939EBC
:1027F0001200FFFFFFFF0BD007C0D9FF08C0DAFFB0
:10280000DF50056EA6EC12F0074A082A00D007C078
:10281000D9FF08C0DAFFDF50D8A401D001D0ECD72F
:1028200000D01200FFFFFFFF7F0E03140210011003
:10283000D8B401D001D006D0000E011A000E021A41
:10284000800E031A01C001F002C002F003C003F0C1
:102850001200FFFFFFFF04D00506D8A0060600D037
:1028600006500510D8A401D001D0F6D700D0076ECD
:10287000640E016E0750D0EC12F01200FFFFFFFF54
:10288000000E026E640E016EA2EC13F00B6E000ED1
:10289000076E0B5027EC0FF00B6E010E056E0B5000
:1028A000F9EC12F01200FFFF00EE9BF00F0EEE6A43
:1028B000E806FDE1766A000EF86E000120EF10F0E8
:1028C000FFFF92809282C180C192C194C186C29C56
:0628D000C28E1200FFFFA2
:020000040030CA
:06000100020F0E00018158
:020008000FC027
:00000001FF
